:020000040800F2
:10E00000B0040020D5E00008A1E400089DE4000869
:10E010000000000000000000000000000000000000
:10E0200000000000000000000000000045E70008BC
:10E03000000000000000000061E5000865E800083D
:10E04000E7E00008E7E00008E7E00008E7E0000894
:10E05000E7E00008E7E00008E7E00008E7E0000884
:10E06000E7E00008E7E00008E7E00008E7E0000874
:10E07000E7E00008E7E00008E7E00008E7E0000864
:10E08000E7E00008E7E00008E7E00008E7E0000854
:10E09000E7E00008E7E00008E7E00008E7E0000844
:10E0A000E7E00008E7E00008E7E00008E7E0000834
:10E0B00005E90008E7E00008E7E00008E7E00008FD
:10E0C0000348854600F02AF80048004739F2000866
:10E0D000B00400200448804704480047FEE7FEE7FC
:10E0E000FEE7FEE7FEE7FEE76DE80008C1E0000896
:10E0F00030B50B46014600202022012409E00D46E0
:10E10000D5409D4205D31D469540491B2546954067
:10E1100040191546521E002DF1DC30BD064C01257C
:10E12000064E05E0E36807CC2B430C3C98471034BF
:10E13000B442F7D3FFF7C8FF88F20008A8F200083E
:10E140000249C9680143014AD1607047002002407A
:10E1500030B5044607253420FFF7F2FF0B200004FA
:10E1600000F07EF80546042D17D10D480069022104
:10E1700008430B490861084644610069402108438F
:10E18000074908610B20000400F06AF805460448BE
:10E1900000690449084002490861284630BD000072
:10E1A00000200240FD3F000007200D49C968C90753
:10E1B000C90F002901D0012010E00949C9680422D3
:10E1C0001140002901D0022008E00549C968102249
:10E1D0001140002901D0032000E004207047000016
:10E1E000002002400348006980210843014908617A
:10E1F000704700000020024078B504460D4607260F
:10E20000002000903420FFF79BFF0120400300F026
:10E2100027F80646042E10D1094800690121084359
:10E22000074908612560F00200F01AF80646044824
:10E2300000690449084002490861304678BD000081
:10E2400000200240FE3F00000248034948600348A6
:10E25000486070472301674500200240AB89EFCD3D
:10E2600010B503460724FFF79FFF044603E0FFF7BE
:10E270009BFF04465B1E012C01D1002BF7D1002B24
:10E2800000D10624204610BD70B503460A46002181
:10E2900000240020E1E001268E40156835402C4620
:10E2A000002C7DD05568022D02D05568122D20D14A
:10E2B00008250D40002D0ED0586A4D07EE0E0F2593
:10E2C000B5400646AE4330464E07F60E5569B5409A
:10E2D000284358620DE0186A4D07EE0E0F25B54031
:10E2E0000646AE4330464E07F60E5569B540284304
:10E2F00018625568012D08D05568112D05D0556854
:10E30000022D02D05568122D0BD1586801258D4081
:10E310000646AE4330461579ED06ED0F8D40284395
:10E32000586018684E000325B5400646AE43304697
:10E330001579AD07AD0F4E00B54028431860D86879
:10E340004E000325B5400646AE4330464E00956864
:10E35000B5402843D860986801258D400646AE43F5
:10E360003046D5688D4028439860D86A01258D4095
:10E370000646AE43304615698D402843D8620126D3
:10E38000360755683540B54266D1374D8E08B60020
:10E39000A8598D072E0F0F25B5400646AE4300E065
:10E3A0005AE03046314DAB4201D100250FE0304DEF
:10E3B000AB4201D101250AE02E4DAB4201D102252D
:10E3C00005E02D4DAB4201D1032500E005258E0768
:10E3D000360FB5402843244D8E08B600A851274D6E
:10E3E00028680546A5432846012636045568354069
:10E3F000B54202D1054625432846204D286068686D
:10E400000546A54328460126760455683540B542A1
:10E4100002D1054625432846184D6860A868054680
:10E42000A54328460126360555683540B54202D138
:10E43000054625432846114DA860E8680546A543D2
:10E4400028460126760555683540B54202D1054675
:10E4500025432846094DE860491C1568CD40002D2C
:10E4600000D018E770BD000008000140000801401E
:10E47000000C014000100140001401400004014064
:10E48000054901600F214161002141608160012146
:10E49000C160002101617047FFFF000000BFFEE77F
:10E4A0007047000010B5044661780020205600F047
:10E4B0001BF8A078002809D000202056C206D20EF2
:10E4C00001219140074A116000BF0AE00020205658
:10E4D000C206D20E01219140024A8032116000BF73
:10E4E00000BF10BD00E100E010B5002819DA1A4A9B
:10E4F00003071B0F083B9B089B00D2588307DC0EC9
:10E50000FF23A3409A438B071B0E8407E40EA3400E
:10E510001A43114B0407240F083CA408A4001A5105
:10E5200018E00E4A03231B02D21883089B00D2581E
:10E530008307DC0EFF23A3409A438B071B0E84073F
:10E54000E40EA3401A43054B032424021B1984083C
:10E55000A4001A5110BD00001CED00E000E100E035
:10E5600070470000002905D0054A12690243044B98
:10E570001A6104E0024A12698243014B1A61704732
:10E5800000100240002905D0054A92690243044B5D
:10E590009A6104E0024A92698243014B9A61704792
:10E5A00000100240002905D0054AD2680243044BFE
:10E5B000DA6004E0024AD2688243014BDA607047B5
:10E5C00000100240F0B585B00446002500BF0020D1
:10E5D00003900290019000900027534840680F215B
:10E5E0000904084003905048406803210905084089
:10E5F00002904D4840688900084001904A484068B0
:10E6000001210906084000900398000CC01C0390EB
:10E610000098000E002804D1444903984843064658
:10E6200003E042490398484306460298000D401C07
:10E63000029030460299FFF75BFD06460198800D77
:10E64000401C019030460199FFF752FD06463648BE
:10E65000406837490840054601218903681A8D4200
:10E6600012D004DC002D09D0082D16D109E00828AD
:10E670000CD001218903401A0FD10BE02B482060F8
:10E680000EE02A4820600BE0266009E00120C0036C
:10E69000206005E02748206002E02448206000BF99
:10E6A00000BF21484068F021084005462D09082D8B
:10E6B00000D200252048475D2068F84060601A4875
:10E6C000406807210902084005462D0A1A48475D9F
:10E6D0006068F840A06014484068C90008400546DA
:10E6E000ED0A1548475D6068F840E0600E48C06A72
:10E6F00005072D0F1148475D39466068FFF7F8FCA4
:10E7000060610948C06AFF21F131084005462D09C2
:10E710002807C00E0A490F5A39463046FFF7E8FC71
:10E72000206105B0F0BD00000010024000127A0028
:10E7300008C000003075000048F2000858F20008D8
:10E7400068F200087047000010B500200022002188
:10E750003D4B1B683D4C23433B4C236000BF3A4B71
:10E760001B68012464042340590C521C002902D167
:10E7700023119A42F3D1344B1B68012464042340D3
:10E78000590C002903D1324B324C236010BD324B5F
:10E790001B689B089B00304C236023461B680224A7
:10E7A00023432D4C2360284B5B68274C6360234632
:10E7B0005B680324A405A343234C636023465B6882
:10E7C0000124A4052343204C636023465B68032493
:10E7D000A405A3431C4C636023465B681F4C234085
:10E7E000194C63602346586801231B061843032312
:10E7F0001B04184300BF00BF234658601B68012458
:10E8000024062343104C236000BF0F4B1B680124D8
:10E8100064062340002BF8D00B4B5B689B089B00E1
:10E82000094C636023465B6802242343064C636003
:10E8300000BF054B5B680A4C23400124A403A3429C
:10E84000F7D100BFA2E7000000100240000001085D
:10E8500000127A000000002000200240FFFFC0FEEE
:10E8600008C0000010B500F0B9F910BD10B51F4880
:10E870000068012108431D490860084640681C499A
:10E8800008401A494860084600681A490840174974
:10E89000086008460068012189048843134908601C
:10E8A0000846406814490840104948600720C002E3
:10E8B000C862BF2000048860104800681021084327
:10E8C0000E49086009480068F82188430749086034
:10E8D000084600680A4949681F2292011140C90888
:10E8E000084302490860FFF72FFF10BD00100240E7
:10E8F0000000FF21FFFFF6FEFFFF00FE00200240A8
:10E900000018004010B51549154800F0B5F800286A
:10E9100006D0134800F03CF9C4B2204600F034FAA7
:10E920001B2149010E4800F0A7F8002802D00C482E
:10E9300000F02EF909490B4800F09EF8002802D09B
:10E94000084800F025F91B214901064800F094F819
:10E95000002802D0034800F01BF910BD2505000077
:10E960000038014000440040F8B50346002400266A
:10E97000009600250020104EB14200D100BF18467D
:10E980000E06740FCE06F60E00960127009EB740C5
:10E990003D46012C01D10C3004E0022C01D1103095
:10E9A00000E01430002A03D006682E43066002E01F
:10E9B0000668AE430660F8BD6A09000010B504465B
:10E9C0001948844209D101218803FFF7EBFD00219A
:10E9D00001208003FFF7E6FD25E01448844209D1B9
:10E9E00001214804FFF7BEFD002101204004FFF78C
:10E9F000B9FD18E00E48844209D101210805FFF74E
:10EA0000B1FD002101200005FFF7ACFD0BE0094836
:10EA1000844208D101214804FFF7C4FD00210120F0
:10EA20004004FFF7BFFD10BD003801400044004026
:10EA30000050004000500140002905D08289012388
:10EA40005B031A43828103E08289024B1A40828170
:10EA500070470000FFDF00000246002001235B0238
:10EA6000994200D100BF13880B40002B01D0012038
:10EA700000E000207047000070B50246002400232B
:10EA800000250020124EB14200D100BF0E06750FC6
:10EA9000CB06DB0E01269E403346012D02D196891E
:10EAA000334006E0022D02D1168A334001E0968AF7
:10EAB00033400C120126A640344616883440002B01
:10EAC00003D0002C01D0012000E0002070BD000028
:10EAD0006A090000F0B589B005460E460024002002
:10EAE000089000BF00BF0027B089002800D000BFF9
:10EAF0002F462C8A21480440F08804432C82AC899C
:10EB00001F480440B0883189084371890843044391
:10EB1000AC81AC8A1B480440B0890443AC8268468F
:10EB2000FFF750FD1848874202D01848874202D1AB
:10EB30000398089001E00298089032689100192328
:10EB4000089A5A431046FFF7D3FA079064210798B2
:10EB5000FFF7CEFA04012109642041430798411AC6
:10EB6000069106990901084632306421FFF7C0FA80
:10EB70000007000F04432C8109B0F0BDFFCF000057
:10EB8000F3E90000FFFC00000038014000500140A4
:10EB900001468888C005C00D7047CA05D20D828025
:10EBA000704730B47446641E2578641CAB4204D3AD
:10EBB000635D5B00E31830BC18471D46F8E702E0D0
:10EBC00008C8121F08C1002AFAD1704770470020F8
:10EBD00001E001C1121F002AFBD170470448006800
:10EBE000002804D002480068401E014908607047B0
:10EBF0000400002070B50126F6063546002000F01E
:10EC0000EDFAFFF721FB002406E02846FFF7A0FA03
:10EC1000FF35FF350235641C702CF6D3FFF7E2FA9E
:10EC2000012000F0DBFA0120C0060149086070BD38
:10EC300018000020FEB505460F461446002000F0DF
:10EC4000CDFAFFF701FB2E460020019013E0E0789B
:10EC50000006A17809040843617809020843217875
:10EC60000843009030460099FFF7C6FA0198401C0F
:10EC70000190361D241DE819B042E8D8FFF7B2FA1A
:10EC8000012000F0ABFAFEBD00BFBFF34F8F044878
:10EC90000449C860BFF34F8F00BF00BFFEE700000C
:10ECA0000400FA0500ED00E000B58BB0012104205E
:10ECB000FFF768FC01210846FFF764FC0121880387
:10ECC000FFF760FC05A8FFF7DBFB0220069004209D
:10ECD0000A90C001059005A92048FFF7D5FA042045
:10ECE0000A900002059005A91C48FFF7CDFA1C21E7
:10ECF0006846017401214174817404A8FFF7D2FBB6
:10ED00001748FFF75BFEE1204002009000216846B3
:10ED10008180C180018181810C2141816946104837
:10ED2000FFF7D8FE01220F490D48FFF71DFE012015
:10ED300000F054FA00200C4908700C4908700C4986
:10ED400008700C4908700C4908700C4908700C498F
:10ED500008800C4908700BB000BD0000000801409D
:10ED600000380140250500000800002009000020AF
:10ED70000A0000200D0000200E0000200F000020DF
:10ED8000100000201200002000B5734909780B0024
:10ED9000FFF707FF0805183854668AA9C4DFAA28B8
:10EDA0000FD16E49087001216B4A117000216C4A25
:10EDB00011706C491278885469490978491C684A6D
:10EDC0001170C7E0552811D1644909784140634A60
:10EDD00011700221604A11706249614A12788854A8
:10EDE0005F490978491C5E4A11700AE0AA2805D1DA
:10EDF0005A4908700121584A117002E00021564A10
:10EE00001170A7E058490870544909784140534AA5
:10EE100011705449524A1278885451490978491C52
:10EE20004F4A117050490978802903DC03214A4A6E
:10EE3000117002E00021484A11708BE00421464A1B
:10EE40001170464909784140444A11704549444A85
:10EE50001278885442490978491C414A117079E076
:10EE60004249087040490978062903DA00213A4AE4
:10EE700011700AE03C490978062903D10721364A76
:10EE8000117002E00521344A11703449097841407B
:10EE9000324A11703349324A12788854304909781D
:10EEA000491C2F4A117055E02F490978C91F2E4A75
:10EEB000117011460978002903DD0621264A1170D8
:10EEC00002E00721244A1170244909784140234A6D
:10EED00011702449224A1278885421490978491C22
:10EEE0001F4A117036E01D49097841401B4A1170D4
:10EEF0001C491B4A1278885419490978491C184A38
:10EF0000117019490978491E174A1170114609787C
:10EF1000002902D10721104A11701BE01149104A43
:10EF20001278885400210C4A11700C4909788142EA
:10EF30000BD10E490978062903D101210C4A117021
:10EF400006E000210A4A117002E00021084A11700F
:10EF500000E000BF00BF00BD080000200900002045
:10EF60000A0000201C0000200B0000200C000020E4
:10EF70000D00002010B5614800780300FFF711FE76
:10EF80000705090F303783ACBB0001205B490870CF
:10EF9000B1E002205A49087058490870ABE059485E
:10EFA000007800281BD00020564908705648407948
:10EFB000022800D09FE0544880795C2801D0FFF7F8
:10EFC00063FE5148C079B42801D0FFF75DFEFFF71A
:10EFD00011FE00204D4908800320484908708AE04E
:10EFE00003204749087004204449087083E04548DD
:10EFF0000078002846D000204249087042484079F5
:10F00000032800D077E04248008800123E49897901
:10F01000884200D06FE03E4800783B49C979884279
:10F0200000D068E0384A083240213A480068FFF7CB
:10F0300001FE3848006840303649086000240AE084
:10F04000204608303049085C3049098840182F496B
:10F050000880601CC4B2402CF2DB2D480088401CA4
:10F060002B490880084600880721C901884206DB31
:10F0700005202249087004202149087002E003207D
:10F080001E49087037E01F480078002823D0002070
:10F090001C4908701C484079042800D02BE01A480D
:10F0A000C0790002184989790843184909888842BB
:10F0B0000BD0FFF79FFD00201449088003200F4963
:10F0C000087000201249088005E006200B490870EE
:10F0D00005200B4908700EE00A480078002809D086
:10F0E00000200849087008484079052800D002E04F
:10F0F000FFF7CAFD00BF00BF10BD000012000020D6
:10F100000E0000200D0000201C0000201400002034
:10F11000100000201800002070B52B48007800284F
:10F1200000D170BD28480078032801D1092500E0EE
:10F1300007250026552025490870AA204870084652
:10F14000857023480078C87021480078401C204909
:10F15000087007201D4908711B48007848711A483B
:10F160000078032806D11B480088001288711948CE
:10F170000078C871002404E01448005D4640601C1B
:10F18000C4B2681EA042F7DC10490E5400BF4021F3
:10F190001148FFF761FC0028F9D000240DE00B486E
:10F1A000015D0D48FFF7F9FC00BF40210A48FFF759
:10F1B00053FC0028F9D0601CC4B2AC42EFDB002045
:10F1C0000149087000BFACE70E0000209C00002041
:10F1D0000F000020100000200038014010B5044648
:10F1E000002C12D001220E490E48FFF7BDFB012171
:10F1F0000C48FFF721FC00200B4908700B490870F0
:10F200000B4908700B49087008E000210548FFF71A
:10F2100013FC002202490348FFF7A6FB10BD0000C3
:10F2200025050000003801400800002009000020EA
:10F230000A0000200D000020FFF736FD03E0FFF775
:10F2400099FEFFF769FFFAE70000000001020304DE
:10F25000010203040607080901020406080A0C104B
:10F260002020202020202020010002000400060091
:10F2700008000A000C00100020004000800000017F
:10F280000001000100010001A8F2000800000020B8
:10F290001C000000BEEB0008C4F200081C000020A7
:10F2A00094040000CEEB0008006CDC0200000000BB
:10F2B000000000000000000000000000000000004E
:04F2C000000000004A
:040000050800E0C14E
:00000001FF
